:1000000048270020D13D00007FA30000BD3D000037
:10001000BD3D0000BD3D0000BD3D0000BD3D0000F8
:10002000000000000000000000000000353F00005C
:10003000BD3D000000000000CD3E0000BD3D0000C1
:10004000CD400000CD400000CD400000CD4000007C
:10005000CD400000CD400000CD400000CD4000006C
:10006000CD400000CD400000CD400000CD4000005C
:10007000CD400000CD400000CD400000CD4000004C
:1004800081F0004102E000BF83F0004330B54FEA45
:1004900041044FEA430594EA050F08BF90EA020FB2
:1004A0001FBF54EA000C55EA020C7FEA645C7FEA45
:1004B000655C00F0E2804FEA5454D4EB5555B8BF68
:1004C0006D420CDD2C4480EA020281EA030382EAD9
:1004D000000083EA010180EA020281EA0303362D6B
:1004E00088BF30BD11F0004F4FEA01314FF4801C3E
:1004F0004CEA113102D0404261EB410113F0004F50
:100500004FEA03334CEA133302D0524263EB430306
:1005100094EA050F00F0A780A4F10104D5F1200EA4
:100520000DDB02FA0EFC22FA05F2801841F10001FF
:1005300003FA0EF2801843FA05F359410EE0A5F1D3
:1005400020050EF1200E012A03FA0EFC28BF4CF004
:10055000020C43FA05F3C01851EBE37101F00045BA
:1005600007D54FF0000EDCF1000C7EEB00006EEBC7
:100570000101B1F5801F1BD3B1F5001F0CD3490851
:100580005FEA30004FEA3C0C04F101044FEA4452A8
:1005900012F5800F80F09A80BCF1004F08BF5FEA2F
:1005A000500C50F1000041EB045141EA050130BD0F
:1005B0005FEA4C0C404141EB0101013C28BFB1F521
:1005C000801FE9D291F0000F04BF01460020B1FA6C
:1005D00081F308BF2033A3F10B03B3F120020CDA3F
:1005E0000C3208DD02F1140CC2F10C0201FA0CF01D
:1005F00021FA02F10CE002F11402D8BFC2F1200C82
:1006000001FA02F120FA0CFCDCBF41EA0C01904037
:10061000E41AA2BF01EB0451294330BD6FEA040480
:100620001F3C1CDA0C340EDC04F11404C4F120026B
:1006300020FA04F001FA02F340EA030021FA04F37D
:1006400045EA030130BDC4F10C04C4F1200220FAD4
:1006500002F001FA04F340EA0300294630BD21FA12
:1006600004F0294630BD94F0000F83F4801306BFD8
:1006700081F480110134013D4EE77FEA645C18BFCC
:100680007FEA655C29D094EA050F08BF90EA020F63
:1006900005D054EA000C04BF1946104630BD91EA5B
:1006A000030F1EBF0021002030BD5FEA545C05D15E
:1006B0004000494128BF41F0004130BD14F580049D
:1006C0003CBF01F5801130BD01F0004545F0FE4111
:1006D00041F470014FF0000030BD7FEA645C1ABF46
:1006E000194610467FEA655C1CBF0B46024650EA7D
:1006F000013406BF52EA033591EA030F41F40021A9
:1007000030BD00BF90F0000F04BF0021704730B52E
:100710004FF4806404F132044FF000054FF0000103
:1007200050E700BF90F0000F04BF0021704730B5C4
:100730004FF4806404F1320410F0004548BF404299
:100740004FF000013EE700BF42004FEAE2014FEAEE
:1007500031014FEA02701FBF12F07F4393F07F4FC9
:1007600081F06051704732F07F4208BF704793F0CC
:100770007F4F04BF41F40021704730B54FF46074DF
:1007800001F0004521F000411CE700BF50EA0102E2
:1007900008BF704730B54FF000050AE050EA01028B
:1007A00008BF704730B511F0004502D5404261EBFB
:1007B00041014FF4806404F132045FEA915C3FF43C
:1007C000D8AE4FF003025FEADC0C18BF03325FEAD9
:1007D000DC0C18BF033202EBDC02C2F1200300FA8A
:1007E00003FC20FA02F001FA03FE40EA0E0021FAAF
:1007F00002F11444BDE600BF70B54FF0FF0C4CF49D
:10080000E06C1CEA11541DBF1CEA135594EA0C0F4E
:1008100095EA0C0F00F0DEF82C4481EA030621EA89
:100820004C5123EA4C5350EA013518BF52EA0335C4
:1008300041F4801143F4801338D0A0FB02CE4FF076
:100840000005E1FB02E506F00042E0FB03E54FF0A6
:100850000006E1FB03569CF0000F18BF4EF0010E9E
:10086000A4F1FF04B6F5007F64F5407404D25FEA9A
:100870004E0E6D4146EB060642EAC62141EA55514D
:100880004FEAC52040EA5E504FEACE2EB4F1FD0C8F
:1008900088BFBCF5E06F1ED8BEF1004F08BF5FEA0D
:1008A000500E50F1000041EB045170BD06F00046BF
:1008B00046EA010140EA020081EA0301B4EB5C046C
:1008C000C2BFD4EB0C0541EA045170BD41F4801164
:1008D0004FF0000E013C00F3AB8014F1360FDEBF89
:1008E000002001F0004170BDC4F10004203C35DA65
:1008F0000C341BDC04F11404C4F1200500FA05F3E8
:1009000020FA04F001FA05F240EA020001F0004288
:1009100021F0004110EBD37021FA04F642EB0601FE
:100920005EEA430E08BF20EAD37070BDC4F10C0428
:10093000C4F1200500FA04F320FA05F001FA04F2EC
:1009400040EA020001F0004110EBD37041F10001D8
:100950005EEA430E08BF20EAD37070BDC4F12005E3
:1009600000FA05F24EEA020E20FA04F301FA05F24B
:1009700043EA020321FA04F001F0004121FA04F2F3
:1009800020EA020000EBD3705EEA430E08BF20EAC3
:10099000D37070BD94F0000F0FD101F000464000FD
:1009A00041EB010111F4801F08BF013CF7D041EA7F
:1009B000060195F0000F18BF704703F00046520083
:1009C00043EB030313F4801F08BF013DF7D043EA54
:1009D0000603704794EA0C0F0CEA135518BF95EA0A
:1009E0000C0F0CD050EA410618BF52EA4306D1D191
:1009F00081EA030101F000414FF0000070BD50EAB0
:100A0000410606BF1046194652EA430619D094EA39
:100A10000C0F02D150EA013613D195EA0C0F05D123
:100A200052EA03361CBF104619460AD181EA030177
:100A300001F0004141F0FE4141F470014FF000002F
:100A400070BD41F0FE4141F4780170BD70B54FF0CA
:100A5000FF0C4CF4E06C1CEA11541DBF1CEA13554A
:100A600094EA0C0F95EA0C0F00F0A7F8A4EB05042C
:100A700081EA030E52EA03354FEA013100F0888023
:100A80004FEA03334FF0805545EA131343EA1263EC
:100A90004FEA022245EA111545EA10654FEA0026A1
:100AA0000EF000419D4208BF964244F1FD0404F55A
:100AB000407402D25B084FEA3202B61A65EB0305B6
:100AC0005B084FEA32024FF480104FF4002CB6EB73
:100AD000020E75EB030E22BFB61A754640EA0C00F3
:100AE0005B084FEA3202B6EB020E75EB030E22BF33
:100AF000B61A754640EA5C005B084FEA3202B6EB74
:100B0000020E75EB030E22BFB61A754640EA9C0032
:100B10005B084FEA3202B6EB020E75EB030E22BF02
:100B2000B61A754640EADC0055EA060E18D04FEAC0
:100B3000051545EA16754FEA06164FEAC30343EA60
:100B400052734FEAC2025FEA1C1CC0D111F4801F2D
:100B50000BD141EA00014FF000004FF0004CB6E726
:100B600011F4801F04BF01430020B4F1FD0C88BFC5
:100B7000BCF5E06F3FF6AFAEB5EB030C04BFB6EBD0
:100B8000020C5FEA500C50F1000041EB045170BDC3
:100B90000EF0004E4EEA113114EB5C04C2BFD4EBF0
:100BA0000C0541EA045170BD41F480114FF0000E74
:100BB000013C90E645EA060E8DE60CEA135594EAF0
:100BC0000C0F08BF95EA0C0F3FF43BAF94EA0C0FF3
:100BD0000AD150EA01347FF434AF95EA0C0F7FF468
:100BE00025AF104619462CE795EA0C0F06D152EABC
:100BF00003353FF4FDAE1046194622E750EA4106A0
:100C000018BF52EA43067FF4C5AE50EA41047FF4B0
:100C10000DAF52EA43057FF4EBAE12E74FF0FF3C15
:100C200006E000BF4FF0010C02E000BF4FF0010CE6
:100C30004DF804CD4FEA410C7FEA6C5C4FEA430C5F
:100C400018BF7FEA6C5C1BD001B050EA410C0CBFAE
:100C500052EA430C91EA030F02BF90EA020F002010
:100C6000704710F1000F91EA030F58BF994208BF77
:100C700090422CBFD8176FEAE37040F00100704734
:100C80004FEA410C7FEA6C5C02D150EA013C07D18B
:100C90004FEA430C7FEA6C5CD6D152EA033CD3D0D6
:100CA0005DF8040B704700BF8446104662468C46D0
:100CB0001946634600E000BF01B5FFF7B7FF002803
:100CC00048BF10F1000F01BD4DF808EDFFF7F4FF2C
:100CD0000CBF012000205DF808FB00BF4DF808EDB7
:100CE000FFF7EAFF34BF012000205DF808FB00BFDA
:100CF0004DF808EDFFF7E0FF94BF012000205DF8FC
:100D000008FB00BF4DF808EDFFF7CEFF94BF0120B0
:100D100000205DF808FB00BF4DF808EDFFF7C4FFA9
:100D200034BF012000205DF808FB00BF4FEA4102FC
:100D300012F5001215D211D56FF47873B3EB62522D
:100D400012D94FEAC12343F0004343EA505311F054
:100D5000004F23FA02F018BF404270474FF00000E6
:100D6000704750EA013005D111F0004008BF6FF024
:100D7000004070474FF00000704700BF4FEA41024B
:100D8000B2F1E04324BFB3F5001CDCF1FE5C0DD9E9
:100D900001F0004C4FEAC0024CEA5070B2F1004F33
:100DA00040EB830008BF20F00100704711F0804F36
:100DB00021D113F13872BCBF01F00040704741F4FB
:100DC00080114FEA5252C2F11802C2F1200C10FAFF
:100DD0000CF320FA02F018BF40F001004FEAC123E3
:100DE0004FEAD32303FA0CFC40EA0C0023FA02F387
:100DF0004FEA4303CCE77FEA625307D150EA01335D
:100E00001EBF4FF0FE4040F44000704701F000402C
:100E100040F0FE4040F40000704700BF80F000400A
:100E200002E000BF81F0004142001FBF5FEA4103C2
:100E300092EA030F7FEA226C7FEA236C6AD04FEAC2
:100E40001262D2EB1363C1BFD21841404840414007
:100E5000B8BF5B42192B88BF704710F0004F40F4B9
:100E6000000020F07F4018BF404211F0004F41F4D5
:100E7000000121F07F4118BF494292EA030F3FD0A1
:100E8000A2F1010241FA03FC10EB0C00C3F12003B4
:100E900001FA03F100F0004302D5494260EB400043
:100EA000B0F5000F13D3B0F1807F06D340084FEAAE
:100EB000310102F10102FE2A51D2B1F1004F40EBA3
:100EC000C25008BF20F0010040EA0300704749000B
:100ED00040EB0000013A28BFB0F5000FEDD2B0FAA8
:100EE00080FCACF1080CB2EB0C0200FA0CF0AABFCB
:100EF00000EBC25052421843BCBFD0401843704769
:100F000092F0000F81F4000106BF80F4000001326E
:100F1000013BB5E74FEA41037FEA226C18BF7FEA45
:100F2000236C21D092EA030F04D092F0000F08BF87
:100F30000846704790EA010F1CBF0020704712F06E
:100F40007F4F04D1400028BF40F00040704712F1AD
:100F500000723CBF00F50000704700F0004343F012
:100F6000FE4040F4000070477FEA226216BF084648
:100F70007FEA23630146420206BF5FEA412390EA0B
:100F8000010F40F4800070474FF0000304E000BF01
:100F900010F0004348BF40425FEA000C08BF7047B2
:100FA00043F0964301464FF000001CE050EA010276
:100FB00008BF70474FF000030AE000BF50EA01028B
:100FC00008BF704711F0004302D5404261EB410178
:100FD0005FEA010C02BF84460146002043F0B6439D
:100FE00008BFA3F18053A3F50003BCFA8CF2083AC2
:100FF000A3EBC25310DB01FA02FC634400FA02FCCB
:10100000C2F12002BCF1004F20FA02F243EB0200D1
:1010100008BF20F00100704702F1200201FA02FC33
:10102000C2F1200250EA4C0021FA02F243EB020026
:1010300008BF20EADC7070474FF0FF0C1CEAD0526A
:101040001EBF1CEAD15392EA0C0F93EA0C0F6FD02B
:101050001A4480EA010C400218BF5FEA41211ED009
:101060004FF0006343EA501043EA5111A0FB0131F5
:101070000CF00040B1F5000F3EBF490041EAD371CA
:101080005B0040EA010062F17F02FD2A1DD8B3F146
:10109000004F40EBC25008BF20F00100704790F0B5
:1010A000000F0CF0004C08BF49024CEA502040EA07
:1010B00051207F3AC2BFD2F1FF0340EAC2507047CD
:1010C00040F400004FF00003013A5DDC12F1190F0B
:1010D000DCBF00F000407047C2F10002410021FA7D
:1010E00002F1C2F1200200FA02FC5FEA310040F195
:1010F000000053EA4C0308BF20EADC70704792F00E
:10110000000F00F0004C02BF400010F4000F013A45
:10111000F9D040EA0C0093F0000F01F0004C02BF40
:10112000490011F4000F013BF9D041EA0C018FE7AF
:101130000CEAD15392EA0C0F18BF93EA0C0F0AD0B5
:1011400030F0004C18BF31F0004CD8D180EA0100DB
:1011500000F00040704790F0000F17BF90F0004F74
:10116000084691F0000F91F0004F14D092EA0C0F56
:1011700001D142020FD193EA0C0F03D14B0218BFE9
:10118000084608D180EA010000F0004040F0FE402F
:1011900040F40000704740F0FE4040F440007047CB
:1011A0004FF0FF0C1CEAD0521EBF1CEAD15392EA4A
:1011B0000C0F93EA0C0F69D0A2EB030280EA010C3A
:1011C00049024FEA402037D04FF0805343EA1111D3
:1011D00043EA10130CF000408B4238BF5B0042F131
:1011E0007D024FF4000C8B4224BF5B1A40EA0C00D6
:1011F000B3EB510F24BFA3EB510340EA5C00B3EB08
:10120000910F24BFA3EB910340EA9C00B3EBD10FF5
:1012100024BFA3EBD10340EADC001B0118BF5FEA47
:101220001C1CE0D1FD2A3FF650AF8B4240EBC25070
:1012300008BF20F0010070470CF0004C4CEA502031
:101240007F32C2BFD2F1FF0340EAC250704740F480
:1012500000004FF00003013A37E792F0000F00F072
:10126000004C02BF400010F4000F013AF9D040EAF0
:101270000C0093F0000F01F0004C02BF490011F484
:10128000000F013BF9D041EA0C0195E70CEAD1537C
:1012900092EA0C0F08D142027FF47DAF93EA0C0F63
:1012A0007FF470AF084676E793EA0C0F04D14B0247
:1012B0003FF44CAF08466EE730F0004C18BF31F0F9
:1012C000004CCAD130F000427FF45CAF31F00043F3
:1012D0007FF43CAF5FE700BF42000ED2B2F1FE4F99
:1012E0000BD34FF09E03B3EB126209D44FEA0023F5
:1012F00043F0004323FA02F070474FF000007047BC
:1013000012F1610F01D1420202D14FF0FF3070475C
:101310004FF00000704700BF53B94AB9002908BF19
:1013200000281CBF4FF0FF314FF0FF3000F00CB829
:10133000ADF1080C6DE904CE00F010F8DDF804E022
:10134000DDE9022304B07047704700BF034613F87D
:10135000012B002AFBD1181A013870472DE9F047FC
:1013600086468C460846089E154674461946002B4C
:1013700040F0C1808542B2FA82F245D94AB1C2F149
:10138000200300FA02FC954094402EFA03F343EA4E
:101390000C0C4FEA154EA8B2230CBCFBFEF80EFB5A
:1013A00018CC08FB00F943EA0C43994528D9EB18FF
:1013B00008F1FF3704D2994502D9A8F102072B445E
:1013C000A3EB0903A4B2B3FBFEFC0EFB1C330CFB26
:1013D00000F044EA0344A04214D92C190CF1FF3365
:1013E00004D2A04202D9ACF102032C44241A43EAED
:1013F00007401EB1D440002334607360BDE8F0871D
:101400004746DDE76346F1E792BB431B01214FEA04
:10141000154EAFB2200CB3FBFEFC0EFB1C330CFBD5
:1014200007F840EA0343984561D9EB180CF1FF3007
:1014300004D2984502D9ACF102002B44A3EB080377
:10144000A4B2B3FBFEFC0EFB1C330CFB07F744EA13
:101450000344A7424DD92C190CF1FF3304D2A74203
:1014600002D9ACF102032C44E41B43EA0040C0E77C
:10147000C2F120039540944020FA03F12EFA03F3C1
:101480004FEA154E9040AFB20343B1FBFEFC0EFB9A
:101490001C10190C0CFB07F841EA0041884522D9C1
:1014A00069180CF1FF3004D2884502D9ACF1020072
:1014B0002944A1EB08019BB2B1FBFEFC0EFB1C1101
:1014C0000CFB07F743EA01439F420ED9EB180CF1DE
:1014D000FF3104D29F4202D9ACF102012B44DB1B45
:1014E00041EA004193E76046E3E76146F7E760467B
:1014F000A4E76346B8E7834206D916B90021084637
:101500007CE7C6E900E0F9E7B3FA83F78FB98342D5
:1015100001D3724508D8BEEB020460EB030301203F
:101520009C461EB9002169E73846FAE7C6E9004C37
:10153000F8E7C7F1200CBB400EFA07F522FA0CF4CD
:101540002EFA0CF1BA401C4320FA0CF3B8404FEAD3
:10155000144901431FFA84FEB3FBF9F809FB183064
:101560000B0C08FB0EFA43EA00439A4540D9E318F6
:1015700008F1FF3004D29A4502D9A8F102002344B1
:10158000A3EB0A0389B2B3FBF9F809FB183308FB94
:101590000EFE41EA03418E452CD9611808F1FF3354
:1015A00004D28E4502D9A8F10203214443EA004047
:1015B000A1EB0E01A0FB02984145CE46434602D363
:1015C00006D14D4504D20138B9EB020E68EB040395
:1015D000002EA7D0B5EB0E0261EB030101FA0CFC63
:1015E00022FA07F3F9404CEA0303C6E9003199E710
:1015F0004046C5E74346D9E72DE9F04F89B0D0E929
:10160000006303938389884615460593B368304683
:101610005B68039906AA9847002831DBDDE9064B91
:10162000A8FB042308FB0B3804924FF0FF3A16A3E3
:10163000D3E9002341460498FFF76EFE049BDFF8D0
:1016400050909A4579EB0803074619D3A5FB04434C
:1016500005FB0B350CA3D3E9002329462046FFF7F1
:101660005BFEA24579EB0505034609D38742B268C4
:1016700006D3059930460091146803993A46A0476D
:1016800009B0BDE8F08F00BF00CA9A3B000000001F
:10169000FFC99A3B0000000010B55D4B1B78013B71
:1016A000062B00F2A980DFE803F08B90930496A448
:1016B0004400C822574B1868013090FBF2F102FB3E
:1016C00011001860FFF764FC5349FFF769FD0146FC
:1016D000FFF7AAFBFFF738F849A3D3E90023FFF788
:1016E0008BF8FFF74BFBFFF72FF847A3D3E9002355
:1016F000FEF7CAFE07F0C4FB0022484BFEF7C6FE09
:101700000022474BFFF778F8FFF738FB0146FFF759
:1017100093FC4449FFF790FCFFF7DEFDC1B2C1F135
:101720006400C0B200F0FCFC0A2008F015F80020AC
:1017300010BDC822374B1868013090FBF2F102FB54
:1017400011001860FFF724FC3349FFF729FD01461B
:10175000FFF76AFBFEF7F8FF29A3D3E90023FFF7A1
:101760004BF8FFF70BFBFEF7EFFF27A3D3E90023AE
:10177000FEF78AFE07F084FB0022284BFEF786FE68
:101780000022274BFFF738F8FFF7F8FA0146FFF77A
:1017900053FC2549FFF750FC2449FFF745FB21493D
:1017A000FFF74AFCFFF798FDC4B22046FFF7F0FBB5
:1017B0001F49FFF741FCFFF78FFDC1B22046B1E79B
:1017C0000021642000F0ACFCB1E764210020F9E7BF
:1017D00032210846F6E7174B1868421C10F001004A
:1017E0001ABF6420002164211A6000F099FCFA20DD
:1017F0009BE73C215020E5E70021EAE7AFF30080BA
:10180000182D4454FB210940182D4454FB21F93F65
:101810005D010020580A0020000048430000F03F0E
:101820000000E03F0000C842CDCC4C3FCDCC4C3E48
:101830009A99993E540A00202DE9F04F80460D46B2
:1018400087B0214F0021BB683846029304AA5B6829
:101850009847002831DBDDE9044BA8FB042308FB93
:101860000B3803924FF0FF3A15A3D3E9002341460A
:101870000398FFF751FD039BDFF850909A4579EBF1
:101880000803064619D3A5FB044305FB0B350CA33F
:10189000D3E9002329462046FFF73EFDA24579EB18
:1018A0000505034609D3864207D300220092029A17
:1018B0000021146838463246A04707B0BDE8F08FD3
:1018C00000CA9A3B0000000094B40000FFC99A3B94
:1018D0002DE9F04F87B0054617461E4603918368F1
:1018E00004AA5B689847002831DBDDE9044AA7FBBE
:1018F00004B307FB0A371AA3D3E900234FF0FF39DB
:1019000058463946FFF708FDDFF85C80D94578EB8B
:10191000070302901ED312A3D3E90023A6FB04B44D
:1019200006FB0A4458462146FFF7F6FCD94578EBFA
:10193000040403460ED30299AA6899420DD3BDF858
:101940004010284600911468DDE90221A04707B045
:10195000BDE8F08F6FF08500F9E76FF01500F6E74E
:1019600000CA9A3B00000000FFC99A3B000000003B
:101970002DE9F74F21F0004680468946B6F1795FA0
:10198000CDE90023C0F0848002460B46FEF734FF09
:1019900004460D4600224C4BFEF72EFF82468B4636
:1019A000204629463CA3D3E90023FEF725FF3CA3AC
:1019B000D3E90023FEF76AFD22462B46FEF71CFF03
:1019C00039A3D3E90023FEF75FFD22462B46FEF73D
:1019D00013FF37A3D3E90023FEF758FD22462B4619
:1019E000FEF70AFF34A3D3E90023FEF74DFD22469C
:1019F0002B46FEF701FF32A3D3E90023FEF746FD95
:101A000022462B46FEF7F8FE22462B46FEF7F4FE52
:101A100004460D4640464946DDE90023FEF7ECFE4C
:101A20000B46024629462046FEF72EFD274B8046F0
:101A300089469E420ED802460B4650465946FEF74E
:101A400023FD02460B4600202149FEF71DFD03B091
:101A5000BDE8F08F1F4B002400201D499E42224606
:101A600094BFA6F500151C4D2B46FEF70DFD224632
:101A700006460F462B4650465946FEF705FD4246A0
:101A80004B46FEF701FD02460B4630463946DCE781
:101A900000200F49DBE700BFD43888BEE9FAA8BDB3
:101AA000C4B1B4BD9EEE213EAD529C804F7E923EAD
:101AB0009015CB19A001FA3E7751C1166CC1563F63
:101AC0004C5555555555A53F0000E03F3233D33FA7
:101AD0000000F03F0000E93F0000D23F000000009E
:101AE0002DE9F04F1F4621F0004385B00446B3F1C5
:101AF000795F0D4616464FD302460B46FEF77CFE35
:101B000082468B4602460B4620462946FEF774FE67
:101B100080468946504659463BA3D3E90023FEF749
:101B20006BFE3BA3D3E90023FEF7AEFC52465B46B7
:101B3000FEF762FE38A3D3E90023FEF7A7FC524666
:101B40005B46FEF759FE36A3D3E90023FEF79CFC63
:101B500052465B46FEF750FE33A3D3E90023FEF75F
:101B600095FC0E9BCDE90001DBB902460B465046C1
:101B70005946FEF741FE2EA3D3E90023FEF784FC6D
:101B800042464B46FEF738FE02460B4620462946A3
:101B9000FEF77CFC04460D462046294605B0BDE80C
:101BA000F08F0022264B30463946FEF725FEDDE950
:101BB0000023CDE9020140464946FEF71DFE0246DC
:101BC0000B46DDE90201FEF75FFC52465B46FEF77D
:101BD00013FE32463B46FEF757FC06460F4640468C
:101BE000494615A3D3E90023FEF706FE02460B463D
:101BF00030463946FEF748FC02460B462046294649
:101C0000FEF742FCC6E700BF7CD5CF5A3AD9E53D86
:101C1000EB9C2B8AE6E55A3E7DFEB157E31DC73E9D
:101C2000D561C119A0012A3FA6F810111111813FF9
:101C3000495555555555C53F495555555555C5BF38
:101C40000000E03F000000002DE9F04FC24B21F002
:101C500000488DB0824698458B461446049107D8BB
:101C60000023C2E900AB0022C4E90223002526E0DC
:101C7000BA4B984576D8049BB94D002BA8A3D3E95D
:101C8000002338DDFEF700FCA84506460F461AD0B3
:101C9000A5A3D3E90023FEF7F7FB02460B468046D7
:101CA000894630463946FEF7EFFB9FA3D3E9002370
:101CB0000125FEF7E9FBC4E90089C4E902012846D1
:101CC0000DB0BDE8F08F9AA3D3E90023FEF7DCFB4B
:101CD00006460F4698A3D3E90023FEF7D5FB02463C
:101CE0000B468046894630463946FEF7CDFB92A327
:101CF000D3E90023DCE7FEF7C9FBA84506460F46FB
:101D000018D089A3D3E90023FEF7C0FB02460B4697
:101D10008046894630463946FEF7B6FB82A3D3E9B2
:101D20000023FEF7B3FB4FF0FF35C4E90089C4E997
:101D30000201C4E77EA3D3E90023FEF7A7FB064612
:101D40000F467DA3D3E90023FEF7A0FB02460B4616
:101D50008046894630463946FEF796FB76A3D3E99E
:101D60000023DEE77F4B984500F2CD8021F000474D
:101D700073A3D3E900233946FEF73EFD00227A4BD8
:101D8000FEF784FBFEF7D2FF0546FEF7CBFC0246CA
:101D90000B46CDE9022362A3D3E90023FEF72CFD15
:101DA00002460B4650463946FEF76EFB82468B468E
:101DB0005DA3D3E90023DDE90201FEF71DFD024624
:101DC0000B4606460F4650465946FEF75DFB1F2D53
:101DD00005DC6A1E654B53F82230434508D14FEAB3
:101DE00028530593C1F30A53C3EB1853102B02DC9D
:101DF000C4E9000139E04EA3D3E90023DDE9020183
:101E0000FEF7FAFC06460F4602460B465046594678
:101E1000FEF73AFB02460B46804689465046594635
:101E2000FEF732FB32463B46FEF72EFB06460F46D8
:101E300041A3D3E90023DDE90201FEF7DDFC3246D0
:101E40003B46FEF721FB02460B4606460F46404640
:101E50004946FEF719FB059AC1F30A53D31A312BF1
:101E600020DCC246CB46C4E90001D4E900895046D3
:101E7000594642464B46FEF707FB3B463246FEF7C5
:101E800003FB049B002BC4E90201BFF618AF09F164
:101E90000043C4F80080A060636001F10043E36088
:101EA0006D420CE728A3D3E90023DDE90201FEF728
:101EB000A3FC06460F4602460B4640464946FEF73F
:101EC000E3FA82468B4602460B4640464946FEF7F9
:101ED000DBFA32463B46FEF7D7FA06460F461CA30E
:101EE000D3E90023DDE90201FEF786FC32463B46DA
:101EF000FEF7CAFA06460F4602460B4650465946BA
:101F0000FEF7C2FA74E71A4B984533D902460B46DE
:101F1000FEF7BAFAC4E90201C4E90001A6E600BF6F
:101F200000004054FB21F93F3163621A61B4D03D97
:101F30000000601A61B4D03D7370032E8A19A33B70
:101F400083C8C96D305FE43F0000002E8A19A33BAF
:101F5000C14920259A837B39FB21E93F7BD9024087
:101F6000FB21F93FFB2139410000E03F60D5000033
:101F7000FFFFEF7F4FEA28550DF13009A5F2164516
:101F8000A8EB05514FF003080F46FEF7CFFEFEF712
:101F9000C9FB02460B4650463946CDE90623FEF7FB
:101FA00073FA00221F4BFEF727FC0F460646FEF78A
:101FB000BDFEFEF7B7FB02460B463046394600260B
:101FC0000027CDE90823FEF75FFA0022154BFEF744
:101FD00013FCCDE90A0132463B46C24608F1FF3800
:101FE00079E90201FEF770FE0028F4D10E4B2A4673
:101FF000214606A8019302230093534606F0B2FF40
:10200000049B0546002BBFF65AAED4E9002101F12E
:102010000043C4E90023D4E9022101F10043C4E9EB
:1020200002233DE700007041E0D5000010B559B330
:10203000032829D8DFE800F002102126134C20786D
:10204000013000F00700207000F0ACF82178104853
:10205000BDE8104007F0DEBC0E4C20680130434262
:1020600003F0030300F0030058BF58422060C0B2E1
:1020700000F02EF921680848EAE70848BDE810405A
:1020800007F0C8BC0648F9E710BD00BF5C0100209E
:10209000F8D60000500A002010D700002ED700000C
:1020A00042D70000F0B589B000F05AF807F078FB8D
:1020B000144800F0B1F800260027002405254FF44D
:1020C0000072CDE90667CDE90354CDE901440E4B1A
:1020D0000E4900940E4804F053FF4FF40072CDE90E
:1020E0000667CDE90354CDE901440A4B0A490B4880
:1020F000009404F045FF002147F6122005F0DEF9B8
:10210000F9E700BF2D2000004797000008150020C8
:10211000D00200203F97000008130020400200205A
:102120006428024628BF642238B564250C460A4B51
:10213000996818464A43B2FBF5F2FFF75DFAAC42E4
:1021400028BF2C460548816801FB04F2B2FBF5F27A
:10215000BDE83840FFF750BAE0000020D000002072
:1021600038B50C4D286808F094FC60B10A4C206822
:1021700008F08FFC38B1A968084807F04BFCA1684B
:10218000074807F047FC00210846FFF7C9FF002079
:1021900038BD00BFE0000020D000002056D700006E
:1021A00071D70000014B1870002070475D010020BE
:1021B0002DE9F74316460024154D164F95F8048077
:1021C00026FA08F3DB071AD53B68C3B12868D0F8B4
:1021D0001090836801A95B68984750B9019BD9F8B2
:1021E00000205A40012303FA08F31A4214BF0120C9
:1021F0000020B0FA80F13B684909E0B29847013409
:10220000042C05F10805D9D103B0BDE8F08300BF67
:10221000F8BE00005C0A00202DE9F84F00264FF0C0
:102220000108264B264C274DDFF89CA0DFF89C9038
:1022300018602768384608F02CFC18B9314650461B
:1022400007F0E8FBE3882068217943F48032D0F876
:1022500010C013F0010FDCF8003008FA01FBD0F8D1
:1022600008E014BF4BEA030323EA0B03CCF8003069
:10227000DEF800309847206821798368D3F818B0D9
:10228000BBF1000F04D04FF0C0634FF0A072D847ED
:10229000237908FA03F3C5E90193BB68DB691BB135
:1022A00001222946384698470136042E04F10804D5
:1022B00005F10C05BDD10020BDE8F88F5C0A0020B7
:1022C000F8BE0000600A00208DD70000B121000098
:1022D000014B1870704700BF5E01002008B52B4805
:1022E00008F0D7FB48B92A4801212A4A07F082FFA3
:1022F0004FF47A7007F042FA08BD274B1B78022B87
:1023000022D0032B2DD0012B3AD124492448FFF7AA
:1023100093FA3C2007F032FA00212148FFF78CFAAB
:10232000502007F02BFA1F491D48FFF785FA282097
:1023300007F024FA1A480021FFF77EFA4FF44D7097
:1023400007F01CFA0020D7E717491548FFF774FA81
:10235000322007F013FA12480021FFF76DFAC82067
:10236000EEE711490E48FFF767FA4FF4C87007F01F
:1023700005FA0B480021FFF75FFA4FF41670DFE70C
:1023800000210748FFF758FADCE700BF94B40000CB
:1023900040BE0000AAD700005E010020C0EA210173
:1023A000002D3101809FD50080A812012DE9F04F4A
:1023B00091B0009302F004030293C2F3C20301330D
:1023C000840705460E46DDF868800392059340F0C9
:1023D000BB81041D30B1072909D86FF01B0011B073
:1023E000BDE8F08F01F007063444C6F10806009BF3
:1023F0004FF000094FF0040A591E4FF0FF334F46CB
:102400000193CB465346CDF810900DB1009A22604F
:102410000598002800F3E8809848009A824203D388
:1024200097488242C0F0E080039AA4EB050E920721
:102430004FEA9E0000F103810F2F00F2B180002DC2
:1024400000F0058107F140020DEB020C019A0CF837
:10245000200C0CF8102C049801300490E7E07A2846
:102460005DD84B280ED8472859D829282DD825289B
:1024700052D054D820287AD02338D0F1000B4BEB1F
:10248000000B74E04C382E2849D8DFE800F0704883
:10249000484848484848484848484B4848484848B9
:1024A00048484859484B4B595959704B6D487048EA
:1024B000184B184848827F4B48484B487F00002003
:1024C0004FF0000B4FF0040A38E001222A38C0B266
:1024D00002FA00F010EA0E0F49D110F0625C2FD121
:1024E00010EA020B43D06046013C5444B4FBFAF4BA
:1024F0000AFB04F4002D61D0A3EB050CA444B44501
:102500003FF66BAF002868D1042B47D158F8043B45
:102510002360042304342AE0019A013A01924FF027
:10252000000B24E011F8010C6C2834D1002011F8C4
:10253000023C83466C2BC5D14FF0080A5346D3E7C3
:1025400008F1070828F00708073424F00704F8E822
:1025500002AB35B106982044B0423FF63EAFC4E925
:1025600000AB4FF0000B08344FF0080A534611F847
:10257000010F002878D0BBF1000F7FF470AF252841
:10258000F5D14FF0010B019B013301934FF0040A89
:10259000ECE7584694E700208346A5E7082B02D0D5
:1025A0006FF015001BE708F1070828F00708F8E8A6
:1025B0000223C4E9002308230834D8E768B9042BB0
:1025C00002D108F10408A4E7082BE9D108F10708B3
:1025D00028F0070808F10808EDE7059A013A059286
:1025E00058F8042B009210E7039A900720D54FF07B
:1025F000010CA4EB050E4FEA9E00BEF5007FCFD282
:102600000F2FCDD8F5B107F140020DEB020E019A64
:10261000C0B20EF8200C0EF8102CBCF1000F3FF4E5
:102620001AAF60F07F000EF8200C09F101090137A4
:10263000C5F108024FF6DA7E0434069297E74FF0B0
:10264000000CDAE7BCF1000F01D00136EFE7029889
:1026500002360028EBD10098CDE90631FEF776FE70
:10266000DDE906310644E2E7631BB3F5806F97D2DC
:1026700045B9A6F10804E018B1E600BF5CB300005C
:102680007CE10000029A9B0828602B709DF81030B6
:10269000C2B1EB7085F80290B9F1000F05D00022AD
:1026A00008A8C5F1010C97420ED14FF0000AC5F100
:1026B00001030DF1200801930DF1300B574512D1A4
:1026C000601B8CE66B70E5E710F8013B190608D536
:1026D0000CEB040EB64503F07F033FF67EAE04F824
:1026E000013B0132DFE7B9F1000F03D098F9002078
:1026F000002A17DB029BD3B11AF80B2004F8012B38
:102700000022019B18191044B0423FF666AE98F8BB
:102710000000009904F8010B2046039208F08CFD9C
:10272000039A14440AF1010A08F10108C6E798F86F
:10273000002055F822300093029B009845F8223083
:10274000FEF704FE421CDCE76FF00D0047E600BF19
:102750002DE9F04F97B000AFD7F880B03B62CBF3D4
:10276000C0030446894690F802A0FA62BB6141B9F1
:10277000457800780AEB800020444D4517D8A0EB3F
:102780000409E378FB61BAF1000F02D01BF0010FDE
:1027900016D1FB6953BBFB6A1BB1494620463A6A16
:1027A00098474D4628465C37BD46BDE8F08F461C2D
:1027B0003046FEF7CBFD0130304409F10109DCE77A
:1027C000626823787A62FA6A9900796104EB83017E
:1027D000002A40F001810E464FF000084D4601EB03
:1027E0000A094E454CD101EB0A0610E01BF0020F1E
:1027F000D1D023789A007A61626804EB83017A620F
:10280000FA6A002A77D14D46904601EB0A061BF082
:10281000050F0CBF02230123FB62FB6906EB430A91
:102820000BF00203BB625645BCD016F8021B16F82B
:10283000013C54F82390994B994502D3984B994504
:1028400036D3BB69002B40D0786A07F0BCF800286B
:102850003BD0E9468AB06A46924B53617B6AC2E933
:1028600006314FF4007313848F4B42F8103F00235E
:102870004FF412518D4800F019FD023DCD46D2E7CC
:1028800016F8013BF96254F82300FEF75FFDD7F814
:102890008430F96A01304BB1D7F8883098453EBF93
:1028A000D7F8843023F8180008F10108054498E7A8
:1028B000BB6923B1786A07F086F80028C9D11BF0FC
:1028C000010F05D1FB6AED1AADE7BB6A002BAAD058
:1028D0004846FEF73BFDD7F8843053B1D7F888302F
:1028E00098453FBFD7F88420431C22F8183008F1E0
:1028F0000108054497E7BAF1000F73D01BF00406F6
:1029000073D0D046002607F1480052463B61B962B9
:1029100008F092FCB96A3B6901EB0A02BA62FA69F3
:10292000F9695200FA60BA6A02EB41023A610BF0AF
:102930000202BA603A69B96A8A4258D162781BF0D9
:10294000020F18BF00217A6208BF4FEA5801B2187F
:102950001BF0010FD2B240F09F801BF0040F14BF98
:1029600040460020BB616270A070E17020463A6A68
:102970007969FB6A9847051EFFF614AFBB694146AB
:1029800023707B6A3A6A6370FB6984F802A0E37083
:1029900007F14800FB6A9847B0F10008C0F2BA801E
:1029A0007B69A9EB0A01C91AFB683A6AC91AD7E917
:1029B0000A0398470028C0F2AF804FF0000BA844EC
:1029C00008EB000507F1380AB34571D300213A6AD4
:1029D0000846FB6A9847E5E656464FF0000807F1BF
:1029E000380092E75646D04696E7B04694E7BA6A72
:1029F00012F8021B12F8015CBA6254F82500274A4B
:102A0000904202D3264A90421ED3BA6932B1786A04
:102A10007B6006F0D8FF7B6800288BD1BA6802BBC8
:102A200008F1280207F1300C08F10100944407F185
:102A3000580208F1020852FA80F00CF8101C5FFAF4
:102A400088F800F8105C75E7BA693AB1786A7B607B
:102A500006F0B9FF7B6800287FF46CAF1BF0010F14
:102A600009D006F1280207F13000711C161806F88B
:102A7000205CCEB25EE71BF0040F3FF45BAF08F1C1
:102A8000280207F1300008F1010102EB000808F804
:102A9000105C5FFA81F84DE7002063E75CB300004B
:102AA0007CE10000D6D700000400000100BE000059
:102AB0001BF80A3054F8239087F83730D7F8843061
:102AC0002BB3D7F888309B4521D2D7F8843033F820
:102AD0001B8001213A6AFB6A07F1370098470028FA
:102AE0001ADB0544B8F1000F06D14846FEF72EFC6C
:102AF00000F101081FFA88F8414648463A6AFB6A25
:102B00009847002808DB05440BF1010B5CE74FF008
:102B10000008DEE7454645E6054643E6014B1860FA
:102B2000704700BFF000002080B505460E461746EE
:102B3000984604F015FD034608F006FC0446DFF84D
:102B40001890424649F8003039463046A84754F8B4
:102B5000090001F0A5F900BF080000002DE9F047C9
:102B6000058B04462807904611D4022905F0070575
:102B700040F0CC80204607F0C6F978B10138218BAF
:102B8000042811D8DFE800F0C2106D8595000129F6
:102B90000CBF45F0100545F02005258388F311880A
:102BA000BFF36F8FBDE8F08701F0070AAA4500F078
:102BB000A5800027B9463E46A368002B00F0BC80E4
:102BC00041F00801218388F31188BFF36F8FA1685A
:102BD000002900F0BA800D68002900F0B680334665
:102BE00052462046D1F80480C047002D76D02B688D
:102BF00029461D46F0E701F007035A1F012A1BD89A
:102C0000002221F00701062B276889B2C4E90022BF
:102C100009D13B4603E0628B013262831B68002BC3
:102C2000F9D141F002012046218307F06CF9002818
:102C30007AD041F0200176E0042B0AD121F007017F
:102C400089B22046218307F05EF910B141F02001DE
:102C50002183218B01F0070AAA454FD00027B946EE
:102C6000AAE7236921F0070141F00601062DD3F8F8
:102C7000009021832DD1B9F1000F3FD041F0080120
:102C8000218388F31188BFF36F8F20463949C847E5
:102C900029E021F00701236941F0040189B2042DE4
:102CA000D3F804902183E6D000274FF0040A3E4673
:102CB00082E721F00701236941F0050189B2052D62
:102CC000D3F808902183D6D000274FF0050A3E465E
:102CD00072E700274FF0060A3E466DE72B4687E76E
:102CE000B9F1000FD1D1EFF31188202383F31288BB
:102CF000BFF36F8F238B23F008032383258BEA0612
:102D00002ED525F01003238305F007056669218B76
:102D1000002EBFF670AF00232768C4E9003321F00E
:102D2000070141F001012183218B4FF0000901F0DF
:102D3000070AAA457FF440AF002F9CD041F008015C
:102D4000218388F31188BFF36F8F002FC8D03D68AF
:102D5000394633465246204607F001F92F46F4E73C
:102D6000AB067FF51BAF25F02003238305F0070595
:102D700000E700BF8B9F00002DE9F047044607469F
:102D80004FF00109DFF8508014B93846BDE8F087EC
:102D900094FAA4F5B5FA85F509FA05F32E0108EBC6
:102DA00005156FEA030A24EA03042B7B002BEBD002
:102DB00058F806301B694BB946447368042228460C
:102DC000196807EA0A0707F0A6F9DDE728469847D9
:102DD0000028D9D1F0E700BF70BE000030B5002256
:102DE00089B00F490F4807F0AAFF002200230024F2
:102DF000CDE906230E230C4DCDE903344FF4407288
:102E00002846CDE90144094B0949009404F0B8F87B
:102E10000849284607F090FE204609B030BD00BFA3
:102E2000392E0000F8070020600300205131000017
:102E3000081700208AD80000014804F007B800BF36
:102E4000140200202DE9F047804621480F4607F084
:102E500046F90646002833D000252846BDE8F0870D
:102E6000237B83B12368DB680BB1204698476368F6
:102E700083F8069023681B69D3B96368042220464F
:102E8000196807F048F9013610345445E8D3B8F111
:102E9000000FE2D0002DDFD02846FFF76DFF05467A
:102EA000002FF7D0002140F2391004F007FBF1E7C2
:102EB000204698470028E0D009FA06F31D43E2E7D0
:102EC00005464FF00109034CDFF80CA0DDE700BF19
:102ED000A00A002070BE000080BE0000014B53F825
:102EE000200070472CBF000008B5034608462BB1F0
:102EF000044A136000F070FC002008BD6FF015005C
:102F0000FBE700BFF400002010B5044C237813B990
:102F1000034803F09BFF0123237010BDFC12002027
:102F20001402002010B50446094807F0D8F83CB157
:102F3000084BD3E8EF1F0139C3E8E21F002AF8D19C
:102F4000054807F008FFBDE81040044803F07EBFC5
:102F5000980A00209C0A0020F80700201402002094
:102F600000200146034BD3E8EF0FC3E8E21F002A1D
:102F7000F9D17047980A002070B5FFF7F1FF0546B8
:102F8000074C084EB44200D370BD63685B792BB127
:102F900023685B6813B12946204698471034F1E74F
:102FA00070BE000080BE000010B5044C04492046ED
:102FB00006F042FE034B1C6010BD00BF74010020F0
:102FC00018BF0000900A002000230D4A10B51370AE
:102FD0000C4A0D4913600D4A0D481360FFF784FF3A
:102FE000FFF7E2FF0B4B0C4918468B4200D310BD94
:102FF0001A1A5C681211013222711033F5E700BF12
:10300000FD120020980A002040420F009C0A002078
:10301000DBA0000070BE000080BE00000146002260
:103020000023014806F029BE74010020014806F083
:10303000C2BE00BF74010020024B0146186806F0B2
:103040000EBF00BF900A0020014806F043BF00BF3A
:103050007401002070B5274B1878002849D0FFF77D
:10306000E5FF0546002841D1234B244C1B68002B6B
:1030700019DD07F062FE4FF47A75A0FB050647F6EE
:103080001222002305FB0161FEF746F9D4E9003264
:10309000C01A40F2E93361EB0201984271F100017C
:1030A00001D3FFF769FFD4E9003213F57A7342F1D7
:1030B0000002C4E90032BDE87040FFF7C5BF636895
:1030C0005B7923B12368294620461B689847103452
:1030D000B442F4D32846FFF7AFFF094BD3E8EF1F04
:1030E0000139C3E8E21F002ABED0F7E7054C064EBF
:1030F000EEE770BDFC120020980A0020F0070020C7
:103100009C0A002070BE000080BE000070B50D4D0E
:10311000297861B90120FFF795FE0B4C0B4EB442A4
:1031200006D3FFF797FF0028FBD101232B7070BD5A
:1031300063685B791BB1236820469B68984710340D
:10314000EDE700BFFD12002070BE000080BE000051
:1031500000212DE9F0470846FFF774FE044658B3F6
:1031600040F21B684FF0000908F0EEF81B4B1C4AB8
:103170001B58136033B11B4B1B68092B02DD1A4827
:1031800003F064FE0025194FDFF85CA044B120462F
:10319000FFF7F2FD044618B94FF0FF384FF0FF3942
:1031A000FFF758FF064628B9B5B942464B46504688
:1031B00003F080FE3546E9E74FF0FF384FF0FF3966
:1031C000D2E72B689B691BB100222846114698471D
:1031D0001035BD42F5D3E8E7054DFAE708000000D9
:1031E000940A00209C0A00201402002080BE0000E7
:1031F00070BE000013B5184806F071FF174B1B781E
:1032000073B1EFF31184202383F31288BFF36F8F20
:10321000FFF720FF84F31188BFF36F8F02B010BD5A
:103220000F4B1B68002BF9D050B9002200230D482A
:10323000CDE9002347F61222002304F07BFCEDE7E2
:103240000928EBD1074807F086FD074802B0BDE822
:10325000104003F0FBBD00BF9C0A0020FD120020BF
:10326000940A0020F80700201402002010B5064B35
:1032700004461B6898472146A060044806F07CFD80
:10328000BDE81040FFF7B6BFF40000207401002035
:10329000044A054B9B1AB1EBD30F34BF52F83100EF
:1032A00000207047F8BD000070BE00002DE9F04F0F
:1032B0008FB0C1F34A2804AF0D469146B8607B60D9
:1032C0000C0DB8F1000F63D000264FF0040B4FF047
:1032D0000A0A07F11403C7F80C80C7E907667E6283
:1032E0000193CDF808B0CDF800A007F11C033246D9
:1032F0004846F968FFF72CFAB0F5006F03461CD377
:103300006C468AB0D9F8041004AB26481A46C3E9C3
:10331000050140F2FF71D9614FF400711984224B0D
:1033200042F8103F4FF4125133462048FFF7BEFFDA
:10333000A5462C37BD46BDE8F08FC0F30A0804F15E
:103340001700184420F0070080083B60FFF766FE76
:1033500068F35325044690B13B6800F11001C7E9BA
:10336000083607F11403F961CDE900A3CDF808B0E0
:1033700048460F4AF96807F11C03FFF7E9F968F3BB
:1033800053252A4620467B68B96806F0E3FED0E75D
:1033900004F1170020F007008008FFF73FFE044605
:1033A000EDE700BF9FD800000400000128BE000028
:1033B00029A100002DE9F04F87B00446DDE9105A3D
:1033C000DDE91279934698460391BFB13B465246D8
:1033D00010210020CDF80090CDF81490FEF7E6FF04
:1033E000B0F5006F06460AD340F2FF730221174A78
:1033F000174807B0BDE8F04F06F005BF3E4605F19F
:103400001700304420F007008008FFF707FE04F0A3
:1034100007040BF0070BE40044EA8B1444EA46244B
:1034200044EA0554054640B13FB13B465246314659
:10343000CDF800901030FEF7B9FF434622462846EB
:10344000039907B0BDE8F04F06F084BEDED8000057
:1034500028BE0000406820B1034BC01A40F3CF00E3
:1034600070474FF0FF307047F8BD00000EB403B551
:1034700003AB53F8042B01460448019301F046F8CE
:1034800002B05DF804EB03B0704700BF51A200002A
:10349000CA0605D48B064CBF02490349FFF7E6BFB5
:1034A000704700BF17D9000016D900002DE9F04F72
:1034B00089B09B46149B9DF84CA00693159B04462F
:1034C0000593169B0D469046179E0493BAF1000F84
:1034D00000F09D8006F48073079306F01AFE06F054
:1034E0000209024600283ED020469149FFF7BEFF60
:1034F0000746B9F1000F08D016F0440F35D12A461F
:1035000020468C49FFF7B2FF074406F0010353B190
:10351000894B204653F82A20884B8949002A08BF46
:103520001A46FFF7A3FF06F48073002B49D006F07C
:103530000803002B63D1B8F1000F66D04246204645
:103540008049FFF793FF0546069B3D44002B6DD154
:10355000049B002B73D1F30700F1E4803146204631
:10356000FFF796FFD8E00746C3E7774B18680028B7
:10357000CAD0764B4FF47A791B684FF03C0CB5FB00
:10358000F3F5B5FBF0F14FF4616300FB115509FB56
:1035900005F5B1FBF3F2B5FBF0FE03FB121100FBE6
:1035A0001E55B1FBFCF309FB05F5B5FBF0F50CFB73
:1035B000131120460091CDE901E56549FFF756FF5B
:1035C000A2E706F00803EBB1624B204653F82A202D
:1035D0006149FFF74BFF0546B8F1000F05D04246A1
:1035E00020465849FFF742FF0544BBF1000FABD01E
:1035F0005A4620465949FFF739FF0544A4E74FF0E2
:10360000000BE1E706F00805E6E745469CE7BBF15D
:10361000010F069B06D1002B64D1049B002B7BD0AD
:1036200000250CE0002BF8D04D485CE04D48069B8F
:1036300022464D4906F096F9049B002B68D0DFF82E
:103640002C81DFF82C91049F3146102F204628BF93
:1036500010274FF0000BFFF71BFF5D4545DC059B76
:10366000494620461A78FFF701FF4FF0010B1BF087
:10367000070F03D141462046FFF7F8FE5F453BD9CF
:10368000059B4946204613F80B20FFF7EFFE0BF190
:10369000010BBBF1100FEAD14FF0000B204635496A
:1036A000FFF7E4FE5A46059B20469A5CA2F12001F2
:1036B0005F2928BF2E223049FFF7D8FE0BF1010BFE
:1036C000BBF1100F1DD01BF0070F03D14146204660
:1036D000FFF7CCFE5F455A46E5D841462046FFF746
:1036E000C5FEEBE71F485546A1E741462046FFF7D8
:1036F000BDFE0BF1010BB0E720462049FFF7B6FEF7
:10370000C5E7059B3B440593049BDB1B04939AD1BF
:10371000BAF1000F7FF41FAF204609B0BDE8F04FAB
:1037200006F089BD2046054A0549FFF79FFE15E7CB
:103730001ED9000022D900003CBF000019D90000AA
:10374000D3DF000047D90000A80A0020A40A002007
:103750002BD9000050BF00004BD9000051D9000008
:103760007FA2000051A200000D4500005ED90000BC
:1037700056D9000060D9000062D900005CD9000071
:1037800042F20F7373B58B4228BF0B46056804469F
:10379000052168460D4A05F0EDF80646636828469F
:1037A0000B225B680A4906F038FD636832466946B9
:1037B00028465B6806F031FD63681B2228465B687B
:1037C000044906F02AFD02B070BD00BFD5DA000042
:1037D00081D9000065D9000000210123064A9042EA
:1037E00006D8064A01B901231360054B18607047DB
:1037F000012140085B00F2E740420F00A40A0020CC
:10380000A80A0020F8B50D460446064F4618B442F3
:1038100001D12846F8BD14F8011BBB6801485B685C
:103820009847F4E754B40000014B03600020704750
:1038300098BF000008B5044806F0ECF8BDE8084061
:10384000024806F0E7B800BFC7D90000FCD9000065
:103850002DE9F04706460C4600AF002936D0D1E9E5
:103860000012E9468AB06D46A3684FF0050AA846E3
:103870001F48C5E90723C5E9050148F810AF002333
:1038800042464FF421511B48FFF710FDD4E90312C3
:10389000CD466369AD461848C5E90723C5E905016A
:1038A000C5F810A0002342464FF421511148FFF7FC
:1038B000FDFCCD46E3690121104A0E4806F0A3FC49
:1038C000A36901210E4A0B4806F09DFC012E07D189
:1038D000EFF305830B4A31460648103B06F093FC94
:1038E0002146304603F054F8BD46BDE8F08700BFDE
:1038F0002ADA000050BE000059DA000088DA000021
:1039000097DA0000C5DA000030BFFFF7FDBF00BF47
:103910002DE9F04105460B4EDFF82C80324606EBD0
:103920000807CC1B2046094907F086FCA01942462F
:103930000021083C07F08DFCC5F8804007F1080025
:10394000BDE8F081000000000400000080BE00001F
:10395000054B5A699B689A421FBF044A536843F05B
:1039600080535360704700BFC00C002000ED00E0A2
:1039700070B52A4C06460D4629482A4906F006FD30
:10398000A36ADB0647D52648274906F0FFFC11202D
:10399000A36A1C0704D52248244906F0F7FC12202C
:1039A0001E4CA36A990712D521491D4806F0EEFC6A
:1039B000636BA26A120609D501211E4A184806F057
:1039C00022FC1EB1A36A23F08003A3621320134CD0
:1039D000A36ADE0704D51248174906F0D7FC142065
:1039E000A36A9C0604D50E48144906F0CFFC1520A6
:1039F0000A4B9A6AD10658BF9A6A9A6A920642BFDF
:103A00005A6A22F400525A629A6A42F0FF029A629B
:103A100000232B7070BD1020BAE700BF00ED00E05E
:103A200050BE0000D8DA0000EEDA000021DB000012
:103A300034DB00004CDB000062DB000081DB0000B7
:103A400010B5244C2449254806F0A0FCA36A99012E
:103A50003ED52248224906F099FC1E20A36ADA01CD
:103A600004D51E481F4906F091FC1F20194CA36A7B
:103A7000DB0204D519481C4906F088FC0220A36A21
:103A80001C0304D51548194906F080FC2120114C6F
:103A9000A36A590304D51148154906F077FC222082
:103AA000A36A9A0304D50D48124906F06FFC23203F
:103AB000084CA36ADB0304D508480F4906F066FCEE
:103AC0002420A36A6FEA03436FEA1343A36210BD85
:103AD0001D20C3E700ED00E0B0DB000050BE000099
:103AE000C8DB0000DBDB0000F5DB00001FDC0000B2
:103AF0003DDC000062DC00007CDC000070B5294C7D
:103B000006460D462848294906F040FCA36AD90418
:103B10003CD52548264906F039FC1720A36A1A052A
:103B200004D52148234906F031FC18201D4CA36A16
:103B30009B0512D51C48204906F028FCA36BA26AFD
:103B4000100409D501211D4A174806F05CFB1EB17F
:103B5000A36A23F40043A3621920124CA36A5905F7
:103B600004D51148164906F011FC1A20A36ADA059B
:103B70000ED50D48134906F009FC1B20094A936A2B
:103B800043F47F43936200232B7070BD1620C5E77A
:103B9000A36A9B04F2D504480B4906F0F7FB1C20EE
:103BA000ECE700BF00ED00E050BE0000A7DC000025
:103BB000BDDC000021DB0000CEDC0000E7DC000003
:103BC000FCDC000017DD000081DB00002DE9F04186
:103BD0008AB0654B0446D3F80480002600AFC8F3D2
:103BE000080586F31188BFF36F8F02F07F43B3F1AE
:103BF0007F4F07D102F00C03082B12D15B495C48C0
:103C000006F0C4FB002634460023FB71EB1E092B93
:103C100000F28980DFE803F00A7F827B878787874D
:103C2000878510074CBF0C460126EDE751495048E7
:103C300006F0ACFB00234C4DFB71EB6A9A0705D5EF
:103C40004D494B4806F0A2FB002331E0EB6A002B04
:103C500001DA4A49F5E7EB6A5B00F5D54849444883
:103C600006F094FB6B69A26943F480736B61BFF348
:103C70004F8FBFF36F8F6B6932F8022C23F4807380
:103C80006B61BFF34F8FBFF36F8F4DF602739A4294
:103C900007D0AB6ADBB26BB30120F91DFFF768FEFA
:103CA00037E023680121374A314806F0ACFA23682F
:103CB000FA79DAB907F1080504F1200C2A462068E0
:103CC0006168083403C264451546F7D17A6A002E4C
:103CD00045D0C2F3080121B96FEA52226FEA4222AD
:103CE0007A62184607F10801FFF7B2FD2837BD4692
:103CF000BDE8F081AB6A13F47F4F04D00120F91DB9
:103D0000FFF7FCFE05E0AB6AB3F5803F9CD3FFF7FD
:103D100097FE0346CCE70020F91DBFE70020F91D00
:103D2000EEE719498DE7194A18F4F87FE8468AB09A
:103D3000174B18BF13466A461649103DC2E90513D2
:103D40004FF400731384144BD56142F8103F0023E5
:103D50004FF411510648FFF7A9FAC54674E722F45B
:103D6000FF7222F00102BBE700ED00E05DDD000024
:103D700050BE000088DD00009FDD0000C0DD0000B7
:103D8000CEDD0000EDDD000009DE000044DD0000B6
:103D90002FDD00002DDE000004000001064B5A69F3
:103DA00042F010025A615A6942F480625A615A69BB
:103DB00022F008025A61704700ED00E0EFF308803E
:103DC000EFF3098101B57246FFF700FF01BD00BFA7
:103DD000002080F31488BFF36F8F002080F30A88DF
:103DE00080F30B880F4880F3088801F0D9FB00208E
:103DF0000D490860BFF34F8F00F02CF8202080F3AE
:103E000011880A484FF40061401880F30988EFF3E5
:103E100014800221084380F31488BFF36F8F00F0F1
:103E2000EFF800004827002094ED00E0081A002079
:103E3000002318460649D1F89020C2F30722934286
:103E400000DB7047C1F89830C1F8A0000133F6E7F5
:103E500000ED00E010B572B6002484F31388FFF77C
:103E6000E7FF23464FF0FF300C4A03F120010133F6
:103E7000102B42F82100F8D100234FF0FF30074A01
:103E800003F160010133102B42F82100F8D162B632
:103E9000BFF34F8FBFF36F8F10BD00BF00E100E095
:103EA000084B9B6883420BD1EFF3058343B1064B6C
:103EB0005A6842F080525A605A6A22F400425A62AA
:103EC00003F054BBC00C002000ED00E016498A68E6
:103ED0004FF030001044EFF3098C80E8F01F2020F1
:103EE00080F31288BFF36F8F104F4FF000664A695E
:103EF0008A603E60D2F880000D4C2060D2F88400C9
:103F00000023C2F8843080F3118802F1300090E879
:103F1000F01F8CF3098802F1000004B506F03EFAA8
:103F2000BDE8044070470000C00C002004ED00E034
:103F3000D00A00201EF0040F0CBFEFF30880EFF34F
:103F40000980816911F8021C0229FFD001B572466F
:103F500006F011FA01BD00BF00B2002807DB012303
:103F60004109034A00F01F00834042F821307047A6
:103F700000E100E000B200280CDB01220649430901
:103F800000F01F008240203341F82320BFF34F8F01
:103F9000BFF36F8F704700BF00E100E0054B42099F
:103FA00053F82220012300F01F0003FA00F0104014
:103FB000704700BF00E100E000B2002801F10101FC
:103FC000ACBF00F16040064B4FEA4111C9B2ABBF34
:103FD00000F5614000F00F0080F80013195470479D
:103FE00014ED00E0044B054A23F07F039360BFF318
:103FF0004F8FBFF36F8F70470000000000ED00E0AF
:1040000008B5FFF7EFFF074AD2F8883023F47003B2
:10401000C2F8883002F0A8FD03F0CAFB00F046F8B1
:1040200002F0E2FD00ED00E042F8203C009B0B496D
:1040300042F81C3C019B21F0010142F8183C029B14
:1040400042F8081C42F8143C4FF0807342F8043CDC
:104050000023203A0265C0F884307047292B000005
:1040600000B50B4B15469860D0F88020094B0E46E2
:104070001A60036F83F30B882C4686F309880020AF
:10408000054B98472046002100220023034C20477F
:10409000C00C0020D00A0020A5A30000292B00009E
:1040A0001022014B1A61704700ED00E00023202030
:1040B00040F20F1210B5044CE1180133934281F81D
:1040C0000003F9D110BD00BF00E100E008B5EFF337
:1040D0000583064A103B02EBC30152F833004968DE
:1040E0008847BDE80840FFF733BC00BFF4B40000C8
:1040F0001FB5094C094A23460121094800F012F96D
:1041000000230393074B0121E41A01A801930294B1
:1041100000F012F904B010BD00F0022000000020F1
:1041200098BF00004002002010B50C7A0B6804F024
:104130001F0223F01F031A43CB68640923F01F03F7
:10414000054943EA440343F00103C1F89800C1F86C
:104150009C20C1F8A03010BD00ED00E010B50A4B66
:10416000D3F89030C3F30723013B984208D90121CB
:104170000346064A064806F046F86FF0150010BDE3
:10418000FFF7D2FFFBE700BF00ED00E044DE0000D8
:1041900048BE00002DE9F04F8946144606464FF010
:1041A0000008514D85B0C84527DAD6F804A0BAF109
:1041B000000F44D0BAF11F0F17D91AF01F0F14D1F6
:1041C000D6F800B01BF01F0F0FD1584606F00DF9BE
:1041D00007460AEB0B00013806F007F9874210D0BA
:1041E0006FF01507414A3B4601E04346404A012132
:1041F000404806F008F86FF01504204605B0BDE809
:10420000F08F17F1160FEDD0BC42EBDDC5F89870BA
:10421000D5F89C10C5F89870D5F8A03021F01F0192
:1042200043F01F0BD6E900321A44994202F1FF3ADB
:104230001DD1D34507D13146F8B206F0DFF808F1B9
:1042400001080C36AFE73146C5F89870D5F89C30B8
:1042500022F01F0203F01F031343C5F89C30E0B2A5
:1042600006F0CCF810F1160FC5D0441CE7E7C5F8EE
:104270009870D5F8A020013B23F01F0302F01F0225
:104280001343D3453146E0B2C5F8A030E8D006F07C
:10429000B5F810F1160FAED0C5F89870D5F89C207F
:1042A0009DF808300BF1FF3B62F304038DF80830F2
:1042B000D5F8A0309DF808205B0863F347128DF80D
:1042C0000820D6E900321344009323F01F035B4417
:1042D000A3EB0A03013023F01F036946C0B2039326
:1042E000FFF73CFFBEE700BF00ED00E08DDE000001
:1042F0006ADE000048BE00000522044BC3F894208B
:10430000BFF34F8FBFF36F8F704700BF00ED00E02A
:10431000BFF35F8F0022024BC3F89420704700BFA9
:1043200000ED00E010B5034C2278FFF733FF20705A
:1043300010BD00BFFF1200202DE9F74F294D8A461E
:1043400006464FF00008AB46274FD0451BDAD6F89B
:104350000490B9F1000F3FD031680846019106F092
:1043600044F80199044609EB0100013806F03DF8D4
:1043700084424FF014021D4B08D002FB08F36FF08B
:1043800015024BF8032003B0BDE8F08F14F1160FAF
:104390002C60F8D01978A142F5DD02FB08B0C7F80F
:1043A0009840C7F89840D7F89C4000F10801007B7E
:1043B00064F304000871D7F8A0000C79400860F39A
:1043C00047140C71D7F89C1021F01F016960D7F8D1
:1043D000A01021F01F01296108F1010814350C36E5
:1043E000B3E700BFD40A002000ED00E0FF12002078
:1043F000F0B54149414CD1F890302568C3F307230B
:104400009D4287B075D80020FFF782FF3C4BC1F872
:10441000C030854216D13B4C01A82570FFF704FA45
:1044200000250646384FAE4213D10020237832498A
:10443000D1F89020C2F30722934254DBFFF75CFFD0
:1044400000202FE0616801EB0011FFF76DFE0130E5
:10445000DFE70199280101EB0513DA683A40B2F56C
:10446000001F21D0B2F5800F2BD0B2F5801F38D1BC
:104470005A689B680958013B22F01F000344012041
:10448000844623F01F0340EA4C10CDE902218DF849
:10449000100002A920780593FFF760FE00281DDABE
:1044A0006FF0150007B0F0BD5A689B680958013BD2
:1044B00022F01F0003444FF0020C012023F01F03E1
:1044C000E1E75A689B680958013B22F01F0003444A
:1044D0004FF0000C062023F01F03D4E723780133AC
:1044E000237001359FE7C1F89830C1F8A00001336F
:1044F0009EE74FF0FF30D5E700ED00E0A4BF0000DD
:10450000AAFF4400FF1200200000F0FFF0B587B0C2
:1045100007460E4614460021102268461D4606F046
:1045200098FE02238DF80230054B2A462146684644
:10453000CDE90476019304F049FA07B0F0BD00BF5D
:104540002FA4000008B5024B1B689847002008BD47
:10455000E80A0020034B044A1860937843F00203F2
:1045600093707047E80A00200001002008B5064952
:10457000064821F00701C1F1005202F53C3205F076
:1045800099F9002008BD00BF4F270020EC0A002049
:1045900008B5234A234B1A6000F05EF84FF47A61A5
:1045A0002148D0F82436C3F30802C3F309434B4330
:1045B00082F480721D49883201FB02334FF4FA21E4
:1045C0005B00B3FBF1F201FB12331949B3F57A3FFB
:1045D00028BF0132C1F80429D0F820364FF47A60A0
:1045E000C3F30802C3F30943434342F21C5082F46D
:1045F000807202F2172200FB02334FF47A701B0A1A
:10460000B3FBF0F200FB1233B3F5FA7F4FF0010376
:1046100028BF0132C1F81C27C1F80036002008BDB0
:104620000020A1071C01002000C0FF00F82A008024
:104630000000125048B1054B054A1B68B3FBF2F36A
:104640005843044B43F00103184770471C010020F6
:1046500040420F00A0BE00000122024BC3F8042418
:10466000704700BF002008E0084B70B5C31A0D4624
:1046700007499B10044659434022064805F0EBFECB
:104680002B4601462046BDE8704018470C0B002021
:10469000B76DDBB6D4B30000402373B50B4C009369
:1046A000041B0B460D460A49A41061430646094AFD
:1046B000094805F0FBFE011E05DA30462B4602B024
:1046C000BDE87040184702B070BD00BF0C0B002061
:1046D000B76DDBB615A50000D4B3000010B5EFF33D
:1046E0001184202383F31288BFF36F8F074A136866
:1046F00023F00201DB07116002D4012006F060F80C
:1047000084F31188BFF36F8F10BD00BF5C0B0020D6
:1047100070B500220121044640F20510FFF74CFC61
:104720000F4801F083F80F4B984215D101F08EF835
:1047300026690D49304605F035FC00280BDB0125C4
:1047400035642469084904F11C0005F02BFC00289D
:1047500001DB0020E56470BD6FF00400FBE700BFE3
:1047600039A500000000AD0BCCBF00001FB5002232
:104770000123CDE902236B46084ACDF800D0CDF8DD
:1047800004D005F0C0FE002805DB43F609520023E3
:10479000684602F08FFB05B05DF804FB33A500000E
:1047A0000C22104B014602FB0033002030B4D3E949
:1047B0000E529863EFF31180202484F31288BFF324
:1047C0006F8F1C6C04F0C00444F002041C6480F37E
:1047D0001188BFF36F8F1DB12B4630BC02481847BC
:1047E00030BC70470C0B0020D4B3000010B4EFF3C2
:1047F0001182202383F31288BFF36F8F164801685C
:1048000041F002040460C80707D482F31188BFF3A3
:104810006F8F012010BC01F02FB81049D1F80C1493
:10482000C903F2D5EFF3118083F31288BFF36F8FC2
:104830000B490B6C03F0C00343F002030B6480F3DD
:104840001188BFF36F8F82F31188BFF36F8F002041
:1048500010BCFFF7A5BF00BF5C0B002000E01050AC
:104860000C0B00202DE9F041012207463449D1E824
:10487000EF3FC1E8E02F0028F9D133B93149324880
:104880004B60CB608A6005F0A0FB7B1E012B28D813
:10489000012F06D12D4BD3F8503403F00303012B25
:1048A0001FD006F043F90546E8B9294B1B78D3B170
:1048B00004220646254BC3F80823244CDFF89480D5
:1048C000D4F84C24D4F84C34D20315D503F00303A8
:1048D000012B01D0012F0FD165B386F31188BFF3EF
:1048E0006F8FBDE8F081EFF31186202383F31288E8
:1048F000BFF36F8F0125E0E7BDB1304605F066FDDF
:10490000D4F8403413F0FF03DAD1D4F80821002A98
:10491000D6D0C4F80831D4F8083120220123C4F8D5
:104920004034C8F8A0212361CAE70021202002F00A
:10493000C5FDE5E70422054BC3F80423D1E700BF1A
:10494000080B0020F80A0020280B002000E010507F
:104950000213002000E100E008B5074806F099F8CE
:1049600038B10648FFF7F6FD0448FEF7D7F80020F7
:1049700008BD6FF01200FBE754B40000814900004D
:104980000A2838B50446074D04D1AB680D212846E6
:104990005B689847AB6803485B68E1B2984720467C
:1049A00038BD00BF54B400002DE9F04340F2063595
:1049B0004668D00648BF0320337B02EA050558BF8E
:1049C000C2F3401087B001F01F07B5F5837F14468E
:1049D00047EA43178DF8030045D00FD8062D44D081
:1049E00007D8B5B1022D14D06FF0150007B0BDE89F
:1049F000F083B5F5807FF7D101250AE040F202226D
:104A0000954234D0B5F5407F33D0B5F5007FEBD17A
:104A1000042522032FD5012372688B40536032692D
:104A200082BB5F2F07F01F034FEA571177D83E4A2A
:104A300052F8212084F4803102EB8302D2F88030D6
:104A4000C1F30041C4F3404423F4706344EA4104D9
:104A500023F00F031C4344EA800444EA0524C2F80F
:104A600080400020C2E70925D3E70825D1E70625C5
:104A7000CFE70525CDE7630341BF012372688B4073
:104A80009360CCE71036394630460DF1020201F052
:104A900025FB14F4403F80460CD13946304605F0E2
:104AA00054FF224B9845DCD130469DF8021001F0AE
:104AB00081FBD6E74FF0000901AB3946304603AA27
:104AC000CDE90439CDE90199CDF80C9001F078F9E0
:104AD000164B984288D114F4003315D09DF803305A
:104AE00084F48034C4F300448DF80E3039464B46CC
:104AF000304603AA8DF80C508DF80D4001F04CFAA9
:104B00000A4B9842CDD06FE7CDE9043339460DF119
:104B10000303304603AA039301F052F9F0E7203370
:104B200052F82330FFDE00BFF0BF00000000AD0BE5
:104B30004209022A034670B503D0012A18D0CAB12F
:104B400070BD0E4E326951680029F9D0012503F07D
:104B50001F030C689D400029F2D08A682A4002D0C9
:104B600030464B6898473CB1236821461C46F2E723
:104B7000034EE7E7034EE5E72346F6E734B40000CB
:104B800014B40000F4B3000038B545682B69E3B1F4
:104B90001035284601F000FB0446B0B9014628460E
:104BA00001F0BAFA0B4B984211D1224628460A4925
:104BB00001F086FA22460121DB20FFF7FDF92246AB
:104BC000012140F20D10FFF7F7F9002038BD6FF01A
:104BD0000400FBE70000AD0B314B0000F0B51646BA
:104BE000426801F01F04107B87B044EA401410694A
:104BF000002871D0B6F5001F02F1100506D121463C
:104C0000284605F0A4FE002007B0F0BD0027B6F549
:104C1000800F01A8019747603BD1B3F1007F14BF1B
:104C2000052304238DF804300023CDE90403039306
:104C300093680DF1030723FA01F111F001013DD151
:104C4000B6F1A07F3AD104F01F035F2C4FEA541055
:104C500003F1200346D8254A52F8202052F8233089
:104C6000DB072BD43A462146284601F037FA204B81
:104C7000984219D002972146284603AA01F0A0F8CD
:104C80001C4B98422BD101222146284601F0A2FA62
:104C9000B9E7B3F1C06F05D0B3F1007F14BF0123B2
:104CA0000223BFE70323BDE73946284601F08AFA0D
:104CB000104B9842DED06FF00B00A5E73A46214634
:104CC000284601F00BFA0B4B9842D4D128469DF8A8
:104CD000031001F06FFACEE76FF0850094E76FF0F4
:104CE000150091E751F82330FFDE00BFF0BF000050
:104CF0000400AD0B0000AD0B2DE9F04746680546FA
:104D0000336800AFD3B96C4688B001686A4637484B
:104D1000C2E905014FF400719183354942F8101F33
:104D20004FF4E2513348FEF7C1FAA5466FF0120482
:104D3000336813BB2046BD46BDE8F0870024F7E783
:104D4000012103462C4A2B4805F05DFAF2E76C4638
:104D500088B029686A462948C2E905014FF4007104
:104D60009183234942F8101F4FF4E2512148FEF786
:104D70009DFAA5466FF01204DCE7002CFAD1A1469B
:104D80004FF00108746854F8390004EBC90A05F0C3
:104D900080FE03460028DAD054F839009AF804104F
:104DA000BAF80630D0F810C0DA07DCF8004054BF7B
:104DB00043F4B01383F4D01323F4801208FA01FEF5
:104DC000DB07D0F808A04CBF44EA0E0424EA0E0426
:104DD000CCF80040DAF80030984704460028AFD1FC
:104DE000336809F101094B45CCD8A3E717DF000070
:104DF0000300000118BE000042DF000061DF000078
:104E00002DE9F041456800AF2B6873BB6C4688B054
:104E100001686A461648C2E905014FF400719183A2
:104E2000144942F8101F14484FF4E251FEF73EFABD
:104E30006FF01200A546BD46BDE8F081D5F80480AC
:104E4000260158F8060005F024FE034638B958F844
:104E500006206C4688B011686A460848DBE70134D2
:104E60002B689C42EADB0020E5E70024F8E700BF5E
:104E700017DF00000300000120BE000084DF0000F7
:104E8000036803F01F025F2B02604FEA53129ABFC0
:104E9000024B53F822000020704700BFB4C000004E
:104EA0002DE9F04F1546074640F2FF19DFF864A1DF
:104EB000DFF864B185B000EB8101B94203D1002075
:104EC00005B0BDE8F08F3B68C3F3C322082AC3F3E3
:104ED000080400F29B804C4508BF4FF0FF34B3F14B
:104EE000D05F1AF802804FEA136210D2192A10D844
:104EF000DFE802F012181F5A22285A0F0F0F0F0F67
:104F00000F0F0F0F0F0F0F0F0F0F5D707376382AF3
:104F100069D06FF08500D3E7C5F80446631C4FD114
:104F20000437CAE7C5F80C46621CF9D000263246A1
:104F300016E0C5F81046F1E7661CC5F80046EFD04C
:104F4000002604E0601CC5F80446E9D0012603A849
:104F50000394FFF795FF0122039B02FA03F383609A
:104F60003B68039403F40040002818BF002203A804
:104F700018BF012601930092FFF782FF039C019B5B
:104F800000EB8400D0F88040C3F3412C009A4FEA34
:104F9000082343EA8C03134304EA0B04234343EA44
:104FA0004603C0F88030BBE7C5F80846BCE7C5F843
:104FB0006045621C3B68B3D0C3F30043002BC5D0EF
:104FC000012603A80394FFF75BFF039B06FA03F394
:104FD0004360ACE7C5F86445EBE7C5F86845E8E72A
:104FE000C5F86C45E5E703A80394FFF749FF039B69
:104FF00000EB8300D0F8803023F0E04343F080439F
:10500000C0F88030631C8BD0012690E76FF015004C
:1050100056E700BFADDF0000F0F0FCFF036803F0CF
:105020001F025F2B02604FEA53129ABF024B53F8E4
:1050300022000020704700BFC0C0000080B500AF54
:1050400088B06A46094BC2E905304FF40073938378
:10505000074B42F8103F00234FF4E2510548FEF79A
:1050600025F96FF00F00BD4680BD00BFB6DF000020
:105070000300000158BE000073B504464068236970
:10508000244A00F1080101F0CFFB234B984205D0E0
:10509000206802B0BDE87040FFF7D0BF656800210E
:1050A000AE6B01AA304605F001FB002805DB019B31
:1050B000326819791868FFF7F3FE002631462B682D
:1050C00001F5AC7253F82230002B0DDB01A80193DF
:1050D000FFF7A4FF019A0368D34013F001031CBF3C
:1050E00001238B403343DEB201310429E7D1002391
:1050F00001206268916A00FA03F232420CBF012279
:105100000022D20321F813200133042BF1D1002017
:1051100002B070BDD3A600000000AD0B2DE9F34135
:10512000BDF820C0032907460D46466804690CF007
:10513000010C06D90B464F4A01214F4805F063F890
:1051400019E0B17F01294FF0010104BF5B0852084B
:1051500001FA05F0002B65D09A4266D9D4F800E038
:1051600072451DD094F804E03EEA000E08D0434A90
:10517000414805F03FF86FF0150002B0BDE8F0813E
:105180001146B1F5004F43D2226084F805E0326841
:1051900096F81E80C2F80CE5C2F80485C2F808151E
:1051A0000121627923FA02F292B2D7F804E08CF07E
:1051B0000108DEF828E042EAC8322EF815205FFA2E
:1051C00080F800293DD1326805F5AC7552F82520EC
:1051D000002A0EDBBCF1000F47D0B3FA83F35B0962
:1051E00033BB01A80192FFF719FF0123019A9340F5
:1051F0008360217921EA0801217139B3A37963BB66
:1052000010230122304606F1280101F033FB22E091
:105210000EF1010EBEF1080F4FEA5101B1D1134654
:10522000174A89E719461A46BFE747F6FF72BCE7F7
:1052300001A80192FFF7F2FE0123019A9340436017
:10524000D7E7237948EA03032371D7E7786801F0A9
:1052500051FB0123A37100208FE70023A371304687
:1052600005F00DFC0028FAD0CAE7003B18BF012367
:10527000B6E700BFD6DF000058BE0000EBDF00003D
:1052800000E0000037B5054600220121C620FEF7E8
:1052900093FEC620FEF760FE6C680121E06805F011
:1052A00056FA6B6819686369C1F82435E28BA38BE1
:1052B000A07E1343228C1343628C1343627E9BB205
:1052C0000243207E02431343C1F86C3569680B68C2
:1052D000D3F8002242F48022C3F800220822C3F847
:1052E00000254A6A0121C3F83C270022C3F8402761
:1052F0001965D3F830110029FBD0C3F800256B687D
:105300000021D86805F023FA6D680021E8682C6850
:1053100005F01DFA0823C4F8003595F82C305BB170
:105320000021E86801AA05F0C1F9002804DA01218A
:10533000094A0A4804F05EFF2A7A52B9AB6AC4F8F7
:1053400004370123C4F80837C4F84C21D4F84C21A1
:10535000A362002003B030BD47E0000068BE00003B
:105360002DE9F04104460D46476805F0DFFBA0B982
:10537000274B1B788BB14FF02008642663681B68AD
:10538000D3F830318BBB012005F018FA013EF5D17E
:105390000021202002F092F8EFE72021EFF31183A3
:1053A0001A4681F31288BFF36F8F60680068D0F8E7
:1053B000300120B983F31188BFF36F8FEEE77B6A6A
:1053C00000201D706368796A1B68C3F83C170121CF
:1053D000C3F84017C3F83001D3F83001196582F3E0
:1053E0001188BFF36F8FBDE8F081EFF311831A4688
:1053F00088F31288BFF36F8F61680968D1F83011A4
:105400000029DCD183F31188BFF36F8FC0E700BFA1
:105410000213002070B514461D4605F0A7F9A042FE
:10542000A94113D30A4AD2E90061A41B24F01F0347
:1054300065EB01009B1941EB0001C2E900316409F1
:1054400044EAC060BDE8704002F08EBA70BD00BF93
:105450003808002010B500220121E420FEF7ACFD41
:10546000174A0020D2F8183723F44033C2F818370F
:1054700000F08EFF134B0446984208D101201249D8
:1054800001F016F8A04205D0104B984214D04FF00E
:10549000FF3010BD05F06AF967220D4B20F01F00A8
:1054A000C3E900010B4BC3E900010B4B02201A605A
:1054B000FFF7D8F90020ECE76FF00B00E9E700BF39
:1054C00000200E500000AD0B180100200200AD0BB3
:1054D00038080020300800209C0B002008B505F09B
:1054E00045F9054AD2E90032C01A61EB02014009D0
:1054F00040EAC16008BD00BF3808002037B5431C32
:105500000CBF6FF0004420EAE07405F02FF90D4B5A
:10551000D3E90025801A61EB05032021C4FB0103B8
:10552000402873F100042CBF20F01F010023521803
:105530004FF0010145EB03030091034801F01CF813
:1055400003B030BD3808002010010020064BD3F80E
:1055500040231C2A05D1D3F84403431E5842584126
:1055600070470020704700BF00C0FF0003689A0723
:105570000CD50368DB070DD50922074BC3F80C25B2
:105580000F22C3F8042501221A60FEE7034B0360D3
:10559000EF3B0360704700BF00801050F000FA50EE
:1055A00008B501233E4A3F48C2F800383E4AD2F8C7
:1055B00040231C2A04BF3D4AC2F80C34FFF7D6FF33
:1055C0000830FFF7D3FF0830FFF7D0FF0830FFF7B0
:1055D000CDFF00F5F470FFF7C9FF354AD2F88C30E3
:1055E00043F44063C2F88C300022D30003F57F03FC
:1055F00003F54043D3F8001401310AD0D3F8001466
:1056000039B1D3F800140132D3F80434402A0B60C6
:10561000EBD1234BD3F84024002A3DD0FFF796FF6F
:1056200048B1214BD3F83423224B9A429EBF1C4BE6
:10563000214AC3F84026FFF789FF18B11F4B204AC3
:10564000C3F8AC27FFF782FF48B13422144BC3F8EC
:105650002426D3F83C2622F40022C3F83C26124B21
:10566000D3F840331C2B08D1164BD3F80026D207B1
:1056700044BF6FF00102C3F800260323124A0C490D
:10568000C2F81835D1F88C3043F44063C1F88C303F
:105690000023C2F8A03508BDC822C3F84024BDE7E6
:1056A0000000125000C50D5000C0FF000030055032
:1056B00000ED00E0001D0A1840E0A91E00A00850FF
:1056C00078000A0400E0105000B0045030B50468BF
:1056D000ACB1B4FA84F30122C3F11F03DBB29A40E8
:1056E00024EA0202D0E8EF5FA54204D1C0E8EC2F23
:1056F000BCF1000FF6D1EAD102480B7030BD024870
:10570000FCE700BF0000AD0B0200AD0B10B5036855
:10571000CB40DB0710D401238B40026843EA02012F
:10572000D0E8EF4F944204D1C0E8EC1FBCF1000F69
:10573000F6D1F2D1014810BD0148FCE70000AD0BE5
:105740000400AD0BF7B5054648B3012825D1042266
:105750004FF48073712032490024C1F808030120FE
:1057600002F1A04203F1A04303F5871302F587126B
:1057700010601C601B682B4BD3F840331C2B13D0DC
:10578000854201D10DF10704002342F21076244F27
:105790008DF8073065B1012D2ED003B0F0BD142275
:1057A0004FF484730420D6E7012DEDD1CD60E9E7F5
:1057B000D7F84C3403F480336CB9002BEDD00120C2
:1057C00004F0FCFF013EF3D1E7E7012004F0F6FF0F
:1057D000013EDFD1E1E7D7F84C2402F0030222704A
:1057E000002BDAD09DF80730002BEED0012DD4D15C
:1057F00000220D4B5A71D0E7D7F80C3403F48033F4
:105800003CB9002BF4D0012004F0D8FF013EF3D1C5
:10581000C3E7002B0CBF012300232370E2D1E7E78D
:1058200000E0105000C0FF00A00B0020044B1A79CC
:1058300022B9012218601A71024870470248704765
:10584000A00B00200000AD0B0C00AD0B08B5084B01
:105850001B6843B140F20510FEF7A0FB18B940F2F7
:105860000510FEF779FB0022024BC3F8402408BD67
:10587000A00B002000E0105010B510B1012845D059
:1058800010BD324BD3F84C14D3F84C24C80324D5A4
:1058900002F00303012B04D013B10020FFF752FFE5
:1058A00000232A4A0420C2F8403410224FF48473A3
:1058B000002103F1A04303F5871319601C6801243C
:1058C00002F1A04202F587121460214A1268002AF0
:1058D00036D01E4BC3F80403D2E7D3F84824D107CF
:1058E000DED5D3F850249207D7D4194A12681AB1DA
:1058F0000422C3F80423C3E7D3F80821002AFBD00D
:105900000022C3F80821D3F80831B9E700220F4B71
:10591000C3F81021D3F81011C3F81821D3F81811C7
:10592000C3F81421D3F814210A4AD2F840231C2AC0
:1059300004D000224FF480737120B9E79860F8E733
:105940001A68002AFCD019601B6899E700E0105023
:10595000A00B002000C0FF0070B500251E4C1F4E9C
:10596000D4F80C3303B970BDB3FA83F3C3F11F034A
:105970009A0002F5807292B202F1A04202F58712FB
:10598000156012680122D8B202FA03F3DBB2102BC1
:10599000C4F8083311D0402B1BD0042B16D1D4F8F7
:1059A0004C14D4F84C14890710D1C4F84024C4F81E
:1059B00004332261D4F80C33D4E702237371C4F8A2
:1059C0001451D4F814312023C4F8043333689847B1
:1059D000F0E77571FAE700BF00E01050A00B00205F
:1059E000036803F01F025F2B02604FEA53129ABF55
:1059F000024B53F822000020704700BFD4C10000C2
:105A0000034A4309D35C00F01F001844C0B270473A
:105A10007BE0000070B505460846FFF7F1FF3C212A
:105A20002A79184B01FB0202083233F81200C10533
:105A300026D578240026C0F3432120F4F85023F81B
:105A400012002A7904FB02340E3434F8020F10F4E9
:105A5000807F03D0C0F34320814211D00136232E32
:105A6000F3D10020C2EB02120A4443F8320078203E
:105A70002A79BDE8704000FB02306030FFF746BE77
:105A800070BD00BFA80B0020F0B50646002487B00B
:105A9000114F019117F8012B06AB03EBD20313F85A
:105AA000143C02F00702D34013F0010306D1013485
:105AB000032CEFD10023184607B0F0BD074A03AD11
:105AC00007CA85E8070055F824100A6A46F824201A
:105AD0000A62002AEBD0EEE78BE0000080BE0000F7
:105AE00010B504460846FFF78BFF3C2303FB040078
:105AF000024B083033F81000400B10BDA80B0020FB
:105B000010B504460846FFF77BFF3C2303FB040067
:105B1000034B083033F81000C0F3400010BD00BF45
:105B2000A80B002010B504460846FFF769FF3C2388
:105B300003FB0400034B083033F81000C0F340109F
:105B400010BD00BFA80B002078232DE9F04F6F4C4B
:105B50000E460C1BB4FBF3F4D0F81413DFF8B0B10D
:105B6000C9B28BB041F400315BF83420009004F0EE
:105B7000A0FE8103054638D50023E7000BEBC404E3
:105B8000CDE907330993636807A819460193FFF726
:105B90007BFF3B1D03934FF0000A5E4B0DF11C0988
:105BA0000293029A12F8013B0292039A02EBD3028B
:105BB0001BF8022003F0070322FA03F3DA071AD4D2
:105BC0000AF1010ABAF1030F09F10409E9D14FF40E
:105BD00000310022009804F06CFE019907A8FFF73D
:105BE00053FF0028D7D125F400350124002D76D1AC
:105BF0000BB0BDE8F08F484B53440493D9F8001024
:105C00000029DDD091FAA1F1B1FA81F1049B1C7851
:105C100041EA44142046FFF7F3FE083036F81080BE
:105C2000C8084FEA98030593012319F8002001F0F2
:105C3000070103FA01F122EA010209F8002006A88F
:105C40000694FFF7CDFE069A059B203250F82220DD
:105C5000C8F382075B07B846C2F3014223D530463A
:105C6000D7B22146424604F005FE06A80694FFF787
:105C7000B7FE069B203350F82330C3F301439F4205
:105C800007D10021204604F0E6FD3946204604F005
:105C9000E2FD06A80694FFF7A3FE0122069B02FA86
:105CA00003F30362AAE7022A0DD10321204604F080
:105CB000D2FD07F00503012BEBD1424621463046C9
:105CC00004F0D8FDE5E702212046059204F0C3FD6B
:105CD000032FF2D0059A032ADBD1022FECE795FAC5
:105CE000A5F3B3FA83F3009904FA03F225EA020557
:105CF00003F5A27251F8222006EB43033046B3F8B5
:105D00006410C2F3014204F0B5FD6FE7A80B002058
:105D1000E0C100008BE000008BE000002DE9F743BC
:105D200005460846FFF76CFE3C222B79204F02FB0C
:105D30000303083337F813300E46DB07044635D526
:105D4000284604F0DDFD95F8049031464846FFF7FB
:105D5000E9FE60B14846FFF7C3FE0022D5F8008097
:105D600000B208EB8003C3F81025C3F810252846BD
:105D70003146FFF74FFE3C222B7901A802FB03447A
:105D80000023083427F814300196FFF729FE019B01
:105D900000EB8300D0F88020064B134043F0020351
:105DA000C0F88030044803B0BDE8F0830348FAE748
:105DB000A80B0020F0F0FCFF0000AD0B0400AD0BC1
:105DC0002DE9F04F9046044685B00846FFF718FECF
:105DD000D8F800900F4606462579B9F1000F23D078
:105DE0002846FFF78DFE18B12846FFF79BFE58BBEB
:105DF00000230DF10F02CDE900338DF80E308DF840
:105E00000F300DF10E014B46384604F0DBFC3C230D
:105E100003FB05635D49083331F8132022F00202C9
:105E200042F0010221F81320D8F80430002B3FD0B3
:105E30003946207993F80090D3F804A0FFF760FE6C
:105E400020B1BAF1000F26D0514835E03C226A4318
:105E5000DFF838E102EB060C0CF1080C3EF81C30C0
:105E600023F02003DB04DB0C2EF81C30BAF1000F0A
:105E700011D0B9F1030FE7D8D8F8041020684968A9
:105E800091F800A000EB8A00B9F1000F17D1C0F81B
:105E90001095C0F810953C2303FB05653B4A083577
:105EA00032F8153023F01C0343EA890322F8153039
:105EB000D8F8083063BB374805B0BDE8F08FD0F89C
:105EC00010B552442BF0030BC0F810B5206843EA1C
:105ED0004A3300EB8A01D1F810050EEB420220F4A0
